:1000000014C1000040C100003EC100003CC100001E
:100010003AC1000038C1000036C1000034C1000000
:1000200032C1000030C100002EC100002CC1000010
:100030002AC1000028C1000026C1000024C1000020
:1000400022C1000020C100001EC100001CC1000030
:100050001AC1000018C1000016C10000AAC50000A6
:1000600012C1000070C5000045C500000CC10000B1
:100070000AC1000008C1000006C1000004C1000060
:1000800002C1000000C10000FEC00000FCC0000072
:10009000FAC00000F8C00000F6C00000F4C0000084
:1000A000F2C00000F0C00000EEC00000ECC0000094
:1000B000EAC00000E8C00000E6C00000E4C00000A4
:1000C000E2C00000E0C00000DEC00000DCC00000B4
:1000D000DAC00000D8C00000D6C00000D4C00000C4
:1000E000D2C000008F029202810285028B02C902F7
:1000F00096029A02A002A402A802AE02B202B602BE
:10010000C902BC02C002C402000021002400270072
:100110002A002D0030003300010100000401070116
:100120000A0100002200250028002B002E003100CB
:10013000340002010000050108010B01000020004D
:100140002300260029002C002F00320000010000AF
:10015000030106010901050505050705080808084A
:10016000020202020A0A080804040404010101014F
:10017000010101010303030303030303040707074A
:100180000C0C0C0C0C0C0C0C0202020206060606EF
:10019000060606060B0B0B0B0B0B0B0B01021020BC
:1001A00020080810204010204080020102010804AD
:1001B0000201010204081020408080402010080441
:1001C000020180040201804020100804020108049A
:1001D00002010102040810204080010204081020DE
:1001E000408000000A0B02090C0D0E0807030401F1
:1001F00000000000000000000000000000000000FF
:1002000000000000000000000000000000001211CB
:1002100010000000000000000000000000000000CE
:100220000000000000000000230611241FBECFEFD5
:10023000D1E2DEBFCDBF00E00CBF12E0A0E0B2E033
:10024000EEEEFFE000E00BBF02C007900D92AE386B
:10025000B107D9F723E0AEE8B2E001C01D92A435A2
:10026000B207E1F711E0C5E1D1E000E005C0219758
:100270000109802FFE01ADD6C431D10780E0080707
:10028000B1F72AD5B2C6BCCECF92DF92EF92FF92E1
:100290000F931F93CF93DF936C017A018B01C0E022
:1002A000D0E0CE15DF0589F0D8016D918D01D60122
:1002B000ED91FC910190F081E02DC6011995892BFB
:1002C00011F47E0102C02196ECCFC701DF91CF91DE
:1002D0001F910F91FF90EF90DF90CF900895FC0158
:1002E000538D448D252F30E0842F90E0821B930B9B
:1002F000541710F0CF96089501970895FC01918D41
:10030000828D981761F0828DDF01A80FB11D5D9677
:100310008C91928D9F5F9F73928F90E008958FEFE5
:100320009FEF0895FC01918D828D981731F0828D99
:10033000E80FF11D858D90E008958FEF9FEF0895F0
:10034000FC01918D228D892F90E0805C9F4F821B54
:1003500091098F73992708958FE992E0F1DF21E0E9
:10036000892B09F420E0822F0895FC01848DDF01A0
:10037000A80FB11DA35ABF4F2C91848D90E0019618
:100380008F739927848FA689B7892C93A089B18907
:100390008C9180648C93938D848D981306C0028811
:1003A000F389E02D80818F7D80830895EF92FF9205
:1003B0000F931F93CF93DF93EC0181E0888F9B8D88
:1003C0008C8D981305C0E889F989808185FD23C04B
:1003D000F62E0B8D10E00F5F1F4F0F731127E02ECD
:1003E0008C8DE8120BC00FB607FCFACFE889F989AB
:1003F000808185FFF5CFCE01B8DFF2CF8B8DFE0176
:10040000E80FF11DE35AFF4FF0820B8FEA89FB8959
:100410008081806207C0EE89FF896083E889F9895D
:1004200080818064808381E090E0DF91CF911F9193
:100430000F91FF90EF900895CF93DF93EC01888D9B
:100440008823C1F0EA89FB89808185FD05C0A889E0
:10045000B9898C9186FD0EC00FB607FCF5CF80815F
:1004600085FFF2CFA889B9898C9185FFEDCFCE01A8
:100470007CDFE8CFDF91CF91089580E090E0892B79
:1004800019F06ADF811125C080E090E0892B41F0EE
:1004900080E090E0892B21F00E94000081111CC0B7
:1004A00080E090E0892B41F080E090E0892B21F002
:1004B0000E940000811113C080E090E0892BA1F020
:1004C00080E090E0892B81F00E94000081110AC039
:1004D00008950E940000D8CF0E940000E1CF0E9442
:1004E0000000EACF0C940000089590E0FC013197E1
:1004F000E231F10508F04DC08827EE58FF4F8F4FCD
:1005000068C5809180008F7703C0809180008F7DC7
:1005100080938000089580918000877FF9CF84B513
:100520008F7702C084B58F7D84BD08958091B0001F
:100530008F7703C08091B0008F7D8093B0000895C5
:10054000809190008F7707C0809190008F7D03C0CD
:1005500080919000877F8093900008958091A00003
:100560008F7707C08091A0008F7D03C08091A0008D
:10057000877F8093A0000895809120018F7707C026
:10058000809120018F7D03C080912001877F80931F
:1005900020010895CF93DF93282F30E0F901EE5129
:1005A000FE4F8491F901E456FE4FD491F901EA5AC5
:1005B000FE4FC491CC2389F0811197DFEC2FF0E03E
:1005C000EE0FFF1FE45CFE4FA591B491EC91ED237B
:1005D00081E090E021F480E002C080E090E0DF91D3
:1005E000CF9108951F93CF93DF93282F30E0F90127
:1005F000EE51FE4F8491F901E456FE4FD491F9017A
:10060000EA5AFE4FC491CC23C1F0162F81116DDF41
:10061000EC2FF0E0EE0FFF1FEE5DFE4FA591B491C1
:100620008FB7F894111105C09C91ED2FE095E92347
:1006300002C0EC91ED2BEC938FBFDF91CF911F9116
:100640000895CF93DF9390E0FC01E456FE4F249190
:10065000FC01EA5AFE4F8491882361F190E0880FF3
:10066000991FFC01E85FFE4FC591D491FC01EE5D3E
:10067000FE4FA591B491611109C09FB7F89488818C
:10068000209582238883EC912E230BC0623061F485
:100690009FB7F8943881822F809583238883EC91CB
:1006A0002E2B2C939FBF06C08FB7F894E8812E2B7A
:1006B00028838FBFDF91CF9108953FB7F894809141
:1006C000930290919402A0919502B091960226B562
:1006D000A89B05C02F3F19F00196A11DB11D3FBF7A
:1006E000BA2FA92F982F8827820F911DA11DB11D08
:1006F000BC01CD0142E0660F771F881F991F4A9504
:10070000D1F708958F929F92AF92BF92CF92DF92CE
:10071000EF92FF926B017C01D0DF4B015C01C114B1
:10072000D104E104F104E9F0C8DFDC01CB01881950
:100730009909AA09BB09883E9340A105B10578F340
:1007400021E0C21AD108E108F10888EE880E83E0A2
:10075000981EA11CB11CC114D104E104F10421F7BD
:10076000DECFFF90EF90DF90CF90BF90AF909F9043
:100770008F900895CF93DF93EC0160E08E8132DF9C
:1007800061E08E812FDF60E08E812CDF8BE891E0CD
:100790000197F1F7DF91CF910895CF92DF92EF9219
:1007A000FF920F931F93CF93DF937C016C0187E03F
:1007B000C80ED11CC0E0D0E0062F10E0B8010C2E0E
:1007C00002C0759567950A94E2F76170F601819110
:1007D0006F0108DF2196C430D10581F7C701DF9191
:1007E000CF911F910F91FF90EF90DF90CF90C2CFEC
:1007F000CF92DF92EF92FF920F931F93CF93DF93ED
:10080000EC01F62E642F8C81EDDE8D818F3F11F08F
:1008100060E0E8DE8F850F2D10E084FF23C06E01BD
:1008200087E0C80ED11CE12CF12CB8010E2C02C0BF
:10083000759567950A94E2F76170F60181916F01F1
:10084000D1DEFFEFEF1AFF0A88E0E816F10469F73E
:10085000CE01DF91CF911F910F91FF90EF90DF902C
:10086000CF9088CFB80184E0759567958A95E1F7B8
:10087000CE0193DF6F2DCE01DF91CF911F910F91AC
:10088000FF90EF90DF90CF9088CF41E0B1DF81E023
:1008900090E0089540E0ACCFEF92FF920F931F934A
:1008A000CF93DF93EC01623018F08F8588608F87DB
:1008B0006B8B1C8A80E48D8B80E18E8B80E58F8B27
:1008C00061E08C81BEDE8D818F3F11F061E0B9DE89
:1008D00061E08E81B6DE7E0187E0E80EF11C00E06B
:1008E00010E08F8584FD03C084E090E002C088E0C2
:1008F00090E00817190744F461E0F70181917F0146
:10090000A0DE0F5F1F4FEDCF8BE39DE00197F1F766
:1009100060E08C8167DE60E08E8164DE8D818F3FD8
:1009200011F060E05FDE6F8564FD19C063E0CE0109
:1009300034DF0BE416E4C8010197F1F763E0CE0160
:100940002CDFC8010197F1F763E0CE0126DF83E5D4
:1009500092E00197F1F762E0CE011FDF13C0606201
:10096000CE0198DF8BE496E40197F1F76F85606222
:10097000CE0190DF83E592E00197F1F76F85606229
:10098000CE0188DF6F856062CE0184DF84E0888BD2
:100990006CE0CE017FDF61E0CE017CDF8BE39FE185
:1009A0000197F1F782E0898B66E0CE01DF91CF916C
:1009B0001F910F91FF90EF906DCF089580E090E030
:1009C00008950FD36115710579F0FB0101900020A6
:1009D000E9F73197AF01461B570BDC01ED91FC9114
:1009E0000280F381E02D199480E090E008958F92C9
:1009F0009F92AF92BF92CF92DF92EF92FF920F93AE
:100A00001F93CF93DF93CDB7DEB7A1970FB6F894BE
:100A1000DEBF0FBECDBF6C01990FEE08FF08F7FED9
:100A200031C0E0919F02F091A0020190F081E02D91
:100A30006DE28FE992E019958C0122273327A901F5
:100A40002C193D094E095F0919A2CE0181967C013E
:100A50009AE0892E912CA12CB12CCA01B901A501D3
:100A6000940195D2605DF70162937F0121153105F4
:100A70004105510591F7BF018FE992E0A3DF080F0F
:100A8000191F1EC0A701960119A28E010F5D1F4FED
:100A90008AE0C82ED12CE12CF12CCA01B901A701A2
:100AA000960175D2605DF80162938F0121153105C1
:100AB0004105510591F7BF018FE992E083DF8C0179
:100AC0006EE172E08FE992E07DDF800F911FA196C9
:100AD0000FB6F894DEBF0FBECDBFDF91CF911F914F
:100AE0000F91FF90EF90DF90CF90BF90AF909F90CD
:100AF0008F9008951F920F920FB60F9211240BB68C
:100B00000F922F933F934F935F936F937F938F93A6
:100B10009F93AF93BF93EF93FF938FE992E025DC10
:100B2000FF91EF91BF91AF919F918F917F916F91C5
:100B30005F914F913F912F910F900BBE0F900FBE81
:100B40000F901F9018951F920F920FB60F921124BD
:100B50000BB60F922F938F939F93EF93FF93E09198
:100B6000AF02F091B0028081E091B502F091B6023F
:100B700082FD12C090818091B8028F5F8F732091A7
:100B8000B902821751F0E091B802F0E0E156FD4F52
:100B9000958F8093B80201C08081FF91EF919F9162
:100BA0008F912F910F900BBE0F900FBE0F901F9043
:100BB00018951F920F920FB60F9211242F933F9307
:100BC0008F939F93AF93BF9380918F0290919002E8
:100BD000A0919102B091920230918E0223E0230FF6
:100BE0002D3720F40196A11DB11D05C026E8230F65
:100BF0000296A11DB11D20938E0280938F029093C7
:100C00009002A0939102B0939202809193029091EE
:100C10009402A0919502B09196020196A11DB11D7A
:100C20008093930290939402A0939502B0939602BE
:100C3000BF91AF919F918F913F912F910F900FBED8
:100C40000F901F901895EFE9F2E01382128288EE60
:100C500093E0A0E0B0E084839583A683B78384E02B
:100C600092E09183808385EC90E09587848784EC83
:100C700090E09787868780EC90E0918B808B81EC69
:100C800090E0938B828B82EC90E0958B848B86EC4A
:100C900090E0978B868B118E128E138E148EECE360
:100CA000F3E01382128286E192E09183808384E0F4
:100CB00084838FEF858385E0868383E0878382E06A
:100CC000808781E0818712861386148615861686B2
:100CD000178661E0CF01E0CD789484B5826084BD51
:100CE00084B5816084BD85B5826085BD85B5816030
:100CF00085BD80916E00816080936E0010928100AE
:100D00008091810082608093810080918100816068
:100D10008093810080918000816080938000809129
:100D2000B10084608093B1008091B00081608093B5
:100D3000B000809191008260809391008091910039
:100D400081608093910080919000816080939000F9
:100D50008091A10082608093A1008091A1008160B8
:100D60008093A1008091A00081608093A000809179
:100D70002101826080932101809121018160809313
:100D800021018091200181608093200180917A006F
:100D9000846080937A0080917A00826080937A00E8
:100DA00080917A00816080937A0080917A008068D7
:100DB00080937A001092C10060E086E142DC60E03E
:100DC00087E13FDC60E088E13CDC60E089E139DC20
:100DD000E091AF02F091B00282E08083E091AB023B
:100DE000F091AC021082E091AD02F091AE028FEC76
:100DF00080831092B702E091B302F091B40286E0D2
:100E00008083E091B102F091B202808180618083A1
:100E1000E091B102F091B202808188608083E0911C
:100E2000B102F091B202808180688083E091B102CA
:100E3000F091B20280818F7D808362E08CE393E049
:100E40002BDD61E272E08FE992E0BCDD6EE172E0E1
:100E50008FE992E0B7DD64EF71E080E090E052DC72
:100E600061E372E08CE393E0ADDDE0914F03E230AB
:100E700010F4E15001C0E1E0F0E0E45CFC4F648973
:100E800060688CE393E006DD65E472E08CE393E058
:100E900099DD68EE73E080E090E034DCC1E0D0E002
:100EA00065E572E08FE992E08DDD80919D02909181
:100EB0009E029DDD68EE73E080E090E023DC89E136
:100EC00069DB8130910529F490939E0280939D0205
:100ED00004C010929E0210929D0286E15BDB81307D
:100EE000910529F490939C0280939B0204C0109278
:100EF0009C0210929B0287E14DDB8130910529F421
:100F000090939A028093990204C010929A021092D0
:100F1000990288E13FDB6BDD88E13CDB019729F436
:100F2000109298021092970204C0D0939802C09336
:100F3000970262E672E08FE992E044DD80919B02C5
:100F400090919C0254DD68EE73E080E090E0DADB83
:100F50006FE672E08FE992E035DD80919902909121
:100F60009A0245DD68EE73E080E090E0CBDB60E85C
:100F700072E08FE992E026DD8091970290919802CD
:100F800036DD68EE73E080E090E0BCDB89CFA1E263
:100F90001A2EAA1BBB1BFD010DC0AA1FBB1FEE1FF3
:100FA000FF1FA217B307E407F50720F0A21BB30B3E
:100FB000E40BF50B661F771F881F991F1A9469F7BA
:100FC00060957095809590959B01AC01BD01CF0116
:100FD0000895EE0FFF1F881F8BBF0790F691E02D3D
:0E0FE000199481E090E0F89400C0F894FFCFDF
:100FEE0000000000D60144016F011C02A0017E0129
:100FFE0092010000000045044401DE04DD040D0AE8
:10100E000054657374696E672053746172746564FD
:10101E000053656C656374204D6F64653A312E2004
:10102E004175746F00322E204B65792D7072657389
:10103E0073696E67006175746F2D6B6579203A2048
:10104E0020006C616E672D6B6579203A202000615F
:10105E006C7068616E756D2D6B6579203A2020007D
:0E106E006465616C792D6B6579203A20200055
:00000001FF
