:100000000C945C000C9479000C9479000C947900A9
:100010000C9479000C9479000C9479000C9479007C
:100020000C9479000C9479000C9479000C9479006C
:100030000C9479000C9479000C9479000C9479005C
:100040000C9492010C9479000C9479000C94790032
:100050000C9479000C9479000C9479000C9479003C
:100060000C9479000C947900000000080002010053
:100070000003040700000000000000000102040863
:100080001020408001020408102001020408102002
:10009000040404040404040402020202020203032E
:1000A0000303030300000000250028002B000000CC
:1000B0000000240027002A0011241FBECFEFD8E043
:1000C000DEBFCDBF11E0A0E0B1E0E2E3F4E002C0AA
:1000D00005900D92A230B107D9F721E0A2E0B1E07E
:1000E00001C01D92AF30B207E1F70E9483010C946A
:1000F00017020C94000061E08DE00E94130160E0A3
:100100008EE00E94130161E08CE00E94130160E028
:100110008FE00E94130161E08BE00E94130160E018
:1001200080E10E94130161E08AE00E94130160E017
:1001300081E10E94130161E089E00E94130160E007
:1001400082E10E94130161E088E00E94130160E0F7
:1001500083E10C9413011F93CF93DF93CDE0D0E0A4
:100160001EE4812F8C1B0E94CD009093050180938B
:100170000401D0930301C0930201049714F060E0DE
:1001800001C061E08C2F0E944C012197C730D1053E
:1001900041F7DF91CF911F9108958E3008F08E5076
:1001A00087702091000190E4299F90011124822BF7
:1001B00080937C0080917A00806480937A008091A3
:1001C0007A0086FDFCCF809178002091790090E044
:1001D000922B0895833081F028F4813099F0823099
:1001E000A1F008958730A9F08830B9F08430D1F4B7
:1001F000809180008F7D03C0809180008F778093F5
:100200008000089584B58F7702C084B58F7D84BD4A
:1002100008958091B0008F7703C08091B0008F7DEA
:100220008093B0000895CF93DF9390E0FC01E458F1
:10023000FF4F2491FC01E057FF4F8491882349F13F
:1002400090E0880F991FFC01E255FF4FA591B491F2
:100250008C559F4FFC01C591D4919FB7611108C087
:10026000F8948C91209582238C93888182230AC0F4
:10027000623051F4F8948C91322F309583238C9313
:100280008881822B888304C0F8948C91822B8C9374
:100290009FBFDF91CF9108950F931F93CF93DF936B
:1002A0001F92CDB7DEB7282F30E0F901E859FF4F94
:1002B0008491F901E458FF4F1491F901E057FF4F81
:1002C00004910023C9F0882321F069830E94EA0089
:1002D0006981E02FF0E0EE0FFF1FEC55FF4FA59175
:1002E000B4919FB7F8948C91611103C0109581234C
:1002F00001C0812B8C939FBF0F90DF91CF911F91F5
:100300000F91089508950E94DC010E9482010E94CD
:100310007B00C0E0D0E00E94AB002097E1F30E9498
:100320000000F9CF1F920F920FB60F9211242F9356
:100330003F938F939F93AF93BF93809107019091C9
:100340000801A0910901B0910A013091060123E052
:10035000230F2D3720F40196A11DB11D05C026E8FD
:10036000230F0296A11DB11D209306018093070162
:1003700090930801A0930901B0930A0180910B01A9
:1003800090910C01A0910D01B0910E010196A11D5B
:10039000B11D80930B0190930C01A0930D01B093BC
:1003A0000E01BF91AF919F918F913F912F910F902F
:1003B0000FBE0F901F901895789484B5826084BD0D
:1003C00084B5816084BD85B5826085BD85B5816059
:1003D00085BDEEE6F0E0808181608083E1E8F0E0B9
:1003E0001082808182608083808181608083E0E8E8
:1003F000F0E0808181608083E1EBF0E080818460C7
:100400008083E0EBF0E0808181608083EAE7F0E0C8
:10041000808184608083808182608083808181602C
:1004200080838081806880831092C1000895F89451
:02043000FFCFFC
:020432000100C7
:00000001FF
