:100000000C945D000C9485000C9485000C94850084
:100010000C9485000C9485000C9485000C9485004C
:100020000C9485000C9485000C9485000C9485003C
:100030000C9485000C9485000C9485000C9485002C
:100040000C946C020C9485000C9485000C94850033
:100050000C9485000C9485000C9485000C9485000C
:100060000C9485000C94850000000008000201003B
:100070000003040700000000000000000102040863
:100080001020408001020408102001020408102002
:10009000040404040404040402020202020203032E
:1000A0000303030300000000250028002B000000CC
:1000B0000000240027002A00880011241FBECFEF73
:1000C000D8E0DEBFCDBF11E0A0E0B1E0E8EAF7E0A4
:1000D00002C005900D92A236B107D9F721E0A2E641
:1000E000B1E001C01D92A338B207E1F710E0CAEBFE
:1000F000D0E004C02297FE010E94CE03C83BD10786
:10010000C9F70E94BD030C94D2030C94000008951B
:10011000CF92EF920F9382E0C82E93E0E92E04E095
:1001200025E04BE06CE082E691E00E940C020F912A
:10013000EF90CF900895CF93DF93C0E0D1E0499145
:10014000599161E082E691E00E942C0240E060E07B
:1001500082E691E00E94540161E082E691E00E9413
:10016000660281E0C231D80751F7DF91CF9108953F
:10017000CF93DF93EC0160E08E810E945E0381E00B
:1001800090E00E94B60261E08E810E945E0381E0F1
:1001900090E00E94B60260E08E810E945E0384E6D9
:1001A00090E0DF91CF910C94B602EF92FF920F9303
:1001B0001F93CF93DF938C01C0E0D0E0E62EF12CAB
:1001C000B7010C2E02C0759567950A94E2F761702D
:1001D000F801EC0FFD1F87810E945E032196C43059
:1001E000D10571F7C801DF91CF911F910F91FF9059
:1001F000EF900C94B800EF92FF920F931F93CF9360
:10020000DF938C01C0E0D0E0E62EF12CB7010C2E7C
:1002100002C0759567950A94E2F76170F801EC0FDA
:10022000FD1F87810E945E032196C830D10571F7BA
:10023000C801DF91CF911F910F91FF90EF900C9427
:10024000B8001F93CF93DF93EC01162F642F8C819E
:100250000E945E038D818F3F19F060E00E945E0373
:100260008F85612F84FF06C0CE01DF91CF911F9152
:100270000C94FB0070E084E0759567958A95E1F732
:10028000CE010E94D500612FCE01DF91CF911F9149
:100290000C94D50040E00C94210161E00E944A01D9
:1002A00080ED97E00C94B602443008F043E0FC0186
:1002B0002389421710F04FEF420FFC01E40FF11DAC
:1002C0002489260F2068622F0C944A01FC01608962
:1002D000262F2460208B6C600C944A010F931F938F
:1002E000CF93DF93EC01423018F08F8588608F87C1
:1002F0004B8B1C8A80E48D8B6E8B70E0605C7F4F33
:100300006F8B222329F0413019F48F8584608F8709
:1003100061E08C810E9425038D818F3F19F061E09F
:100320000E94250361E08E810E94250300E010E019
:100330008F8584FF03C088E090E002C084E090E0F5
:100340000817190754F4FE01E00FF11F61E08781DF
:100350000E9425030F5F1F4FEBCF80E593EC0E94B7
:10036000B60260E08C810E945E0360E08E810E9494
:100370005E038D818F3F19F060E00E945E036F8500
:1003800064FD1DC063E0CE010E94D50084E991E1C7
:100390000E94B60263E0CE010E94D50084E991E19B
:1003A0000E94B60263E0CE010E94D50086E990E08B
:1003B0000E94B60262E0CE010E94D50016C06062C3
:1003C000CE010E944A0184E991E10E94B6026F8544
:1003D0006062CE010E944A0186E990E00E94B60266
:1003E0006F856062CE010E944A016F856062CE0116
:1003F0000E944A0184E0888BCE010E946601CE01F2
:100400000E944D0182E0898B66E0CE01DF91CF91A1
:100410001F910F910C944A01CF92EF920F93FC0120
:10042000138212828EE591E09183808364838FEF43
:100430008583468327830087E186C28613861486D8
:1004400015861686178620E041E060E1CF010F9106
:10045000EF90CF900C946E01CF92DF92EF92FF92CB
:100460000F931F93CF93DF9300D0CDB7DEB78C01EE
:10047000677088E0689FB00111246064C8014983F7
:100480005A830E944A014981C42E5A81D52EE12CFB
:10049000F12CD6016D916D01D801ED91FC91019087
:1004A000F081E02DC8010995BFEFEB1AFB0AE8E0E7
:1004B000EE16F10471F70F900F90DF91CF911F911D
:1004C0000F91FF90EF90DF90CF90089541E00E9450
:1004D000210181E090E008951F920F920FB60F92D4
:1004E00011242F933F938F939F93AF93BF9380914A
:1004F0007B0190917C01A0917D01B0917E013091B2
:100500007A0123E0230F2D3720F40196A11DB11DA0
:1005100005C026E8230F0296A11DB11D20937A0184
:1005200080937B0190937C01A0937D01B0937E0129
:1005300080917F0190918001A0918101B091820111
:100540000196A11DB11D80937F0190938001A0931E
:100550008101B0938201BF91AF919F918F913F91A3
:100560002F910F900FBE0F901F901895823091051C
:1005700038F0880F991F880F991F05970197F1F799
:100580000895789484B5826084BD84B5816084BD0B
:1005900085B5826085BD85B5816085BDEEE6F0E0FC
:1005A000808181608083E1E8F0E010828081826058
:1005B0008083808181608083E0E8F0E080818160D9
:1005C0008083E1EBF0E0808184608083E0EBF0E009
:1005D000808181608083EAE7F0E0808184608083AD
:1005E0008081826080838081816080838081806857
:1005F00080831092C1000895833081F028F4813007
:1006000099F08230A1F008958730A9F08830B9F0D0
:100610008430D1F4809180008F7D03C08091800070
:100620008F7780938000089584B58F7702C084B55A
:100630008F7D84BD08958091B0008F7703C0809135
:10064000B0008F7D8093B0000895CF93DF9390E04A
:10065000FC01E458FF4F2491FC01E057FF4F8491C7
:10066000882349F190E0880F991FFC01E255FF4F64
:10067000A591B4918C559F4FFC01C591D4919FB722
:10068000611108C0F8948C91209582238C93888105
:1006900082230AC0623051F4F8948C91322F309545
:1006A00083238C938881822B888304C0F8948C9157
:1006B000822B8C939FBFDF91CF9108950F931F934F
:1006C000CF93DF931F92CDB7DEB7282F30E0F9012B
:1006D000E859FF4F8491F901E458FF4F1491F90153
:1006E000E057FF4F04910023C9F0882321F069836C
:1006F0000E94FC026981E02FF0E0EE0FFF1FEC5535
:10070000FF4FA591B4919FB7F8948C91611103C0EC
:100710001095812301C0812B8C939FBF0F90DF9197
:10072000CF911F910F910895CF92DF92EF92FF9298
:100730000F931F93CF93DF937C016A01EB0100E0DD
:1007400010E00C151D0571F06991D701ED91FC9138
:100750000190F081E02DC7010995892B19F00F5FF9
:100760001F4FEFCFC801DF91CF911F910F91FF90E5
:10077000EF90DF90CF90089508950E94C1020E94EB
:10078000BC030E948700C0E0D0E00E949B0020973D
:10079000E1F30E940000F9CFEE0FFF1F0590F491E6
:0807A000E02D0994F894FFCF4D
:1007A80052014A0142011A0112013A0122012A01A9
:1007B80032010010000000000000001000000000DE
:1007C8000000000010000000000000000800000009
:1007D8000000000004000000000000040000000009
:1007E80000000400000000000000080000000000F5
:1007F8000000100000000000000000000000660279
:02080800940357
:00000001FF
