:100000000C945E000C9486000C9486000C94860080
:100010000C9486000C9486000C9486000C94860048
:100020000C9486000C9486000C9486000C94860038
:100030000C9486000C9486000C9486000C94860028
:100040000C9435020C9486000C94FF040C9431053A
:100050000C9486000C9486000C9486000C94860008
:100060000C9486000C948600000000080002010039
:100070000003040700000000000000000102040863
:100080001020408001020408102001020408102002
:10009000040404040404040402020202020203032E
:1000A0000303030300000000250028002B000000CC
:1000B0000000240027002A009800610511241FBEBB
:1000C000CFEFD8E0DEBFCDBF11E0A0E0B1E0EEE0C1
:1000D000FCE002C005900D92A831B107D9F721E0EC
:1000E000A8E1B1E001C01D92A63DB207E1F710E022
:1000F000CCEBD0E004C02297FE010E940106C83B71
:10010000D107C9F70E94CD050C9405060C94000098
:1001100020E042E060E188E191E00E94710126E088
:1001200040E855E260E070E089E391E00C949D04C2
:10013000CF92EF920F9382E0C82E93E0E92E04E075
:1001400025E04BE06CE088E191E00E940F020F9106
:10015000EF90CF90089589E391E00E94BA03892B34
:10016000D9F064E670E080E090E00E94A20288E1AD
:1001700091E00E94620189E391E00E94BA0318169F
:10018000190654F489E391E00E94D303682F88E1B3
:1001900091E00E942F02EFCF0895CF93DF93EC01FF
:1001A00060E08E810E94840381E090E00E94DC0286
:1001B00061E08E810E94840381E090E00E94DC0275
:1001C00060E08E810E94840384E690E0DF91CF910D
:1001D0000C94DC02EF92FF920F931F93CF93DF9367
:1001E0008C01C0E0D0E0E62EF12CB7010C2E02C04D
:1001F000759567950A94E2F76170F801EC0FFD1FA1
:1002000087810E9484032196C430D10571F7C8010B
:10021000DF91CF911F910F91FF90EF900C94CD0043
:10022000EF92FF920F931F93CF93DF938C01C0E067
:10023000D0E0E62EF12CB7010C2E02C07595679523
:100240000A94E2F76170F801EC0FFD1F87810E94AC
:1002500084032196C830D10571F7C801DF91CF9191
:100260001F910F91FF90EF900C94CD001F93CF93AF
:10027000DF93EC01162F642F8C810E9484038D8103
:100280008F3F19F060E00E9484038F85612F84FF07
:1002900006C0CE01DF91CF911F910C94100170E048
:1002A00084E0759567958A95E1F7CE010E94EA0092
:1002B000612FCE01DF91CF911F910C94EA0040E0B5
:1002C0000C94360161E00E945F0180ED97E00C9490
:1002D000DC02FC016089262F2460208B6C600C946A
:1002E0005F010F931F93CF93DF93EC01423018F01F
:1002F0008F8588608F874B8B1C8A80E48D8B6E8BFB
:1003000070E0605C7F4F6F8B222329F0413019F43D
:100310008F8584608F8761E08C810E944B038D8183
:100320008F3F19F061E00E944B0361E08E810E94D3
:100330004B0300E010E08F8584FF03C088E090E06D
:1003400002C084E090E00817190754F4FE01E00FA2
:10035000F11F61E087810E944B030F5F1F4FEBCFBE
:1003600080E593EC0E94DC0260E08C810E948403B3
:1003700060E08E810E9484038D818F3F19F060E0E0
:100380000E9484036F8564FD1DC063E0CE010E945E
:10039000EA0084E991E10E94DC0263E0CE010E9460
:1003A000EA0084E991E10E94DC0263E0CE010E9450
:1003B000EA0086E990E00E94DC0262E0CE010E9441
:1003C000EA0016C06062CE010E945F0184E991E1FB
:1003D0000E94DC026F856062CE010E945F0186E9A7
:1003E00090E00E94DC026F856062CE010E945F0196
:1003F0006F856062CE010E945F0184E0888BCE0130
:100400000E946901CE010E94620182E0898B66E050
:10041000CE01DF91CF911F910F910C945F01CF928C
:10042000EF920F93FC011382128284E091E091839A
:10043000808364838FEF8583468327830087E186EB
:10044000C2861386148615861686178620E041E03C
:1004500060E1CF010F91EF90CF900C94710141E0DA
:100460000E94360181E090E008951F920F920FB62E
:100470000F9211242F933F938F939F93AF93BF932A
:100480008091310190913201A0913301B0913401FA
:100490003091300123E0230F2D3720F40196A11D68
:1004A000B11D05C026E8230F0296A11DB11D2093A2
:1004B00030018093310190933201A0933301B093C6
:1004C00034018091350190913601A0913701B091AE
:1004D00038010196A11DB11D80933501909336011D
:1004E000A0933701B0933801BF91AF919F918F9145
:1004F0003F912F910F900FBE0F901F9018953FB70F
:10050000F8948091350190913601A0913701B09116
:10051000380126B5A89B05C02F3F19F00196A11DF3
:10052000B11D3FBF6627782F892F9A2F620F711D4B
:10053000811D911D42E0660F771F881F991F4A9504
:10054000D1F708958F929F92AF92BF92CF92DF9290
:10055000EF92FF926B017C010E947F024B015C01D4
:10056000C114D104E104F104F1F00E94DC050E9401
:100570007F02681979098A099B09683E73408105E1
:10058000910570F321E0C21AD108E108F10888EE64
:10059000880E83E0981EA11CB11CC114D104E10493
:1005A000F10429F7DDCFFF90EF90DF90CF90BF905F
:1005B000AF909F908F9008958230910538F0880F0A
:1005C000991F880F991F05970197F1F7089578945F
:1005D00084B5826084BD84B5816084BD85B5826048
:1005E00085BD85B5816085BDEEE6F0E080818160E6
:1005F0008083E1E8F0E010828081826080838081E6
:1006000081608083E0E8F0E0808181608083E1EBBD
:10061000F0E0808184608083E0EBF0E080818160A5
:100620008083EAE7F0E0808184608083808182605B
:100630008083808181608083808180688083109244
:10064000C1000895833081F028F4813099F0823020
:10065000A1F008958730A9F08830B9F08430D1F442
:10066000809180008F7D03C0809180008F77809380
:100670008000089584B58F7702C084B58F7D84BDD6
:1006800008958091B0008F7703C08091B0008F7D76
:100690008093B0000895CF93DF9390E0FC01E4587D
:1006A000FF4F2491FC01E057FF4F8491882349F1CB
:1006B00090E0880F991FFC01E255FF4FA591B4917E
:1006C0008C559F4FFC01C591D4919FB7611108C013
:1006D000F8948C91209582238C93888182230AC080
:1006E000623051F4F8948C91322F309583238C939F
:1006F0008881822B888304C0F8948C91822B8C9300
:100700009FBFDF91CF9108950F931F93CF93DF93F6
:100710001F92CDB7DEB7282F30E0F901E859FF4F1F
:100720008491F901E458FF4F1491F901E057FF4F0C
:1007300004910023C9F0882321F069830E942203D9
:100740006981E02FF0E0EE0FFF1FEC55FF4FA59100
:10075000B4919FB7F8948C91611103C010958123D7
:1007600001C0812B8C939FBF0F90DF91CF911F9180
:100770000F910895FC01818D228D90E0805C9F4F48
:10078000821B91098F7399270895FC01918D828DA9
:10079000981731F0828DE80FF11D858D90E0089556
:1007A0008FEF9FEF0895FC01918D828D981761F076
:1007B000828DDF01A80FB11D5D968C91928D9F5F98
:1007C0009F73928F90E008958FEF9FEF089587E5D4
:1007D00095E0892B49F080E090E0892B29F00E9478
:1007E000570581110C9400000895FC01848DDF01F0
:1007F000A80FB11DA35ABF4F2C91848D90E0019694
:100800008F739927848FA689B7892C93A089B18982
:100810008C9180648C93938D848D981306C002888C
:10082000F389E02D80818F7D80830895CF93DF93BE
:10083000EC01888D8823C9F0EA89FB89808185FDD8
:1008400005C0A889B9898C9186FD0FC00FB607FC39
:10085000F5CF808185FFF2CFA889B9898C9185FF7A
:10086000EDCFCE010E94F503E7CFDF91CF91089540
:10087000CF92DF92FF920F931F93CF93DF931F923C
:10088000CDB7DEB76C0181E0D60158968C935897AE
:100890005B969C915B975C968C915C97981307C0D4
:1008A0005096ED91FC915197808185FD2EC0F60107
:1008B000038D10E00F5F1F4F0F731127F02EF6010D
:1008C000848DF81211C00FB607FCF9CFD6015096EF
:1008D000ED91FC915197808185FFF1CFC60169832D
:1008E0000E94F5036981EBCF838DE80FF11DE35A78
:1008F000FF4F6083D6015B960C935B975296ED9108
:10090000FC915397808180620CC0D6015696ED9180
:10091000FC91579760835096ED91FC91519780819F
:100920008064808381E090E00F90DF91CF911F91F0
:100930000F91FF90DF90CF900895BF92CF92DF92FA
:10094000EF92FF92CF93DF93EC016A017B01B22E0D
:10095000E889F98982E08083411581EE58076105B5
:100960007105A1F060E079E08DE390E0A7019601C8
:100970000E94DD05215031094109510956954795DD
:1009800037952795211580E1380798F0E889F9898E
:10099000108260E874E88EE190E0A70196010E9461
:1009A000DD05215031094109510956954795379583
:1009B0002795EC85FD853083EE85FF852083188E95
:1009C000EC89FD89B082EA89FB898081806180831E
:1009D000EA89FB89808188608083EA89FB8980813C
:1009E00080688083EA89FB8980818F7D8083DF91A5
:1009F000CF91FF90EF90DF90CF90BF9008951F921E
:100A00000F920FB60F9211242F938F939F93EF9312
:100A1000FF93E0914901F0914A018081E0914F01FB
:100A2000F091500182FD12C09081809152018F5F40
:100A30008F7320915301821751F0E0915201F0E041
:100A4000E75CFE4F958F8093520101C08081FF913A
:100A5000EF919F918F912F910F900FBE0F901F904C
:100A600018951F920F920FB60F9211242F933F9358
:100A70004F935F936F937F938F939F93AF93BF93A6
:100A8000EF93FF9389E391E00E94F503FF91EF91CB
:100A9000BF91AF919F918F917F916F915F914F9196
:100AA0003F912F910F900FBE0F901F90189589E3E3
:100AB00091E00E94BA0321E0892B09F420E0822F03
:100AC000089510923C0110923B0188EE93E0A0E063
:100AD000B0E080933D0190933E01A0933F01B0931D
:100AE00040018CE091E090933A018093390185ECCC
:100AF00090E0909346018093450184EC90E09093C0
:100B000048018093470180EC90E090934A018093E4
:100B1000490181EC90E090934C0180934B0182EC71
:100B200090E090934E0180934D0186EC90E090937D
:100B3000500180934F011092520110925301109274
:100B40005401109255010895CF92DF92EF92FF92D7
:100B50000F931F93CF93DF937C016A01EB0100E0B9
:100B600010E00C151D0571F06991D701ED91FC9114
:100B70000190F081E02DC7010995892B19F00F5FD5
:100B80001F4FEFCFC801DF91CF911F910F91FF90C1
:100B9000EF90DF90CF90089508950E94E7020E94A1
:100BA000CC050E948800C7EED3E00E94AB002097DE
:100BB000E1F30E94E703F9CF0895A1E21A2EAA1BE0
:100BC000BB1BFD010DC0AA1FBB1FEE1FFF1FA217FD
:100BD000B307E407F50720F0A21BB30BE40BF50BFA
:100BE000661F771F881F991F1A9469F76095709583
:100BF000809590959B01AC01BD01CF010895EE0F4A
:0E0C0000FF1F0590F491E02D0994F894FFCFAA
:100C0E00000000002F02A405000000003804A40517
:080C1E00BA03D303C503160459
:00000001FF
