:100000000C945D000C9485000C9485000C94850084
:100010000C9485000C9485000C9485000C9485004C
:100020000C9485000C9485000C9485000C9485003C
:100030000C9485000C9485000C9485000C9485002C
:100040000C9462020C9485000C9485000C9485003D
:100050000C9485000C9485000C9485000C9485000C
:100060000C9485000C94850000000008000201003B
:100070000003040700000000000000000102040863
:100080001020408001020408102001020408102002
:10009000040404040404040402020202020203032E
:1000A0000303030300000000250028002B000000CC
:1000B0000000240027002A00C60011241FBECFEF35
:1000C000D8E0DEBFCDBF11E0A0E0B1E0E0E8F8E0AD
:1000D00002C005900D92A232B107D9F721E0A2E249
:1000E000B1E001C01D92A334B207E1F710E0CAEB02
:1000F000D0E004C02297FE010E943A04C83BD10719
:10010000C9F70E9428040C943E040C94000020E0DF
:1001100042E060E182E291E00E948F0160E071E0E4
:1001200082E291E00E94250468EE73E080E090E0B6
:100130000E94CF0241E063E082E291E00E947501FB
:100140006BE071E082E291E00E94250441E062E010
:1001500082E291E00E94750168EE73E080E090E039
:100160000C94CF0282E291E00E944D0268EB7BE0AA
:1001700080E090E00E94CF0282E291E00E9454026F
:1001800068EB7BE080E090E00C94CF02CF92EF929E
:100190000F9387E0C82E96E0E92E05E024E043E0C7
:1001A00062E082E291E00E942D020F91EF90CF90E9
:1001B0000895CF93DF93EC0160E08E810E94B1033C
:1001C00081E090E00E94090361E08E810E94B1030A
:1001D00081E090E00E94090360E08E810E94B103FB
:1001E00084E690E0DF91CF910C940903EF92FF92A7
:1001F0000F931F93CF93DF938C01C0E0D0E0E62EE6
:10020000F12CB7010C2E02C0759567950A94E2F7A0
:100210006170F801EC0FFD1F87810E94B1032196E8
:10022000C430D10571F7C801DF91CF911F910F91B3
:10023000FF90EF900C94D900EF92FF920F931F93D1
:10024000CF93DF938C01C0E0D0E0E62EF12CB70114
:100250000C2E02C0759567950A94E2F76170F8015B
:10026000EC0FFD1F87810E94B1032196C830D10594
:1002700071F7C801DF91CF911F910F91FF90EF901F
:100280000C94D9001F93CF93DF93EC01162F642FAA
:100290008C810E94B1038D818F3F19F060E00E9434
:1002A000B1038F85612F84FF06C0CE01DF91CF910E
:1002B0001F910C941C0170E084E0759567958A95F8
:1002C000E1F7CE010E94F600612FCE01DF91CF91C0
:1002D0001F910C94F60040E00C94420161E00E94F2
:1002E0006B0180ED97E00C940903443008F043E083
:1002F000FC012389421710F04FEF420FFC01E40F7D
:10030000F11D2489260F2068622F0C946B01FC01DB
:100310006089262F2460208B6C600C946B010F93F6
:100320001F93CF93DF93EC01423018F08F858860E4
:100330008F874B8B1C8A80E48D8B6E8B70E0605CAA
:100340007F4F6F8B222329F0413019F48F85846011
:100350008F8761E08C810E9478038D818F3F19F037
:1003600061E00E94780361E08E810E94780300E0E2
:1003700010E08F8584FF03C088E090E002C084E035
:1003800090E00817190754F4FE01E00FF11F61E037
:1003900087810E9478030F5F1F4FEBCF80E593ECBE
:1003A0000E94090360E08C810E94B10360E08E81AD
:1003B0000E94B1038D818F3F19F060E00E94B1036C
:1003C0006F8564FD1DC063E0CE010E94F60084E9E4
:1003D00091E10E94090363E0CE010E94F60084E9E6
:1003E00091E10E94090363E0CE010E94F60086E9D4
:1003F00090E00E94090362E0CE010E94F60016C060
:100400006062CE010E946B0184E991E10E940903C0
:100410006F856062CE010E946B0186E990E00E94C8
:1004200009036F856062CE010E946B016F85606277
:10043000CE010E946B0184E0888BCE010E9487016F
:10044000CE010E946E0182E0898B66E0CE01DF91D1
:10045000CF911F910F910C946B01CF92EF920F935C
:10046000FC01138212828DE191E091838083648389
:100470008FEF8583468327830087E186C2861386B4
:10048000148615861686178620E041E060E1CF01CC
:100490000F91EF90CF900C948F01FC0160896E7FDB
:1004A000608B68600C946B01FC016089262F2160D1
:1004B000208B69600C946B0141E00E94420181E055
:1004C00090E008951F920F920FB60F9211242F9370
:1004D0003F938F939F93AF93BF9380913B019091F4
:1004E0003C01A0913D01B0913E0130913A0123E0E1
:1004F000230F2D3720F40196A11DB11D05C026E85C
:10050000230F0296A11DB11D20933A0180933B0158
:1005100090933C01A0933D01B0933E0180913F0137
:1005200090914001A0914101B09142010196A11D1D
:10053000B11D80933F0190934001A0934101B0937E
:100540004201BF91AF919F918F913F912F910F9059
:100550000FBE0F901F9018953FB7F89480913F0100
:1005600090914001A0914101B091420126B5A89B14
:1005700005C02F3F19F00196A11DB11D3FBF662791
:10058000782F892F9A2F620F711D811D911D42E0D6
:10059000660F771F881F991F4A95D1F708958F928C
:1005A0009F92AF92BF92CF92DF92EF92FF926B0138
:1005B0007C010E94AC024B015C01C114D104E10436
:1005C000F104F1F00E9437040E94AC026819790925
:1005D0008A099B09683E73408105910570F321E00B
:1005E000C21AD108E108F10888EE880E83E0981E4F
:1005F000A11CB11CC114D104E104F10429F7DDCF21
:10060000FF90EF90DF90CF90BF90AF909F908F9032
:1006100008958230910538F0880F991F880F991F2F
:1006200005970197F1F70895789484B5826084BDA9
:1006300084B5816084BD85B5826085BD85B58160E6
:1006400085BDEEE6F0E0808181608083E1E8F0E046
:100650001082808182608083808181608083E0E875
:10066000F0E0808181608083E1EBF0E08081846054
:100670008083E0EBF0E0808181608083EAE7F0E056
:1006800080818460808380818260808380818160BA
:1006900080838081806880831092C10008958330B8
:1006A00081F028F4813099F08230A1F008958730EC
:1006B000A9F08830B9F08430D1F4809180008F7D2A
:1006C00003C0809180008F7780938000089584B567
:1006D0008F7702C084B58F7D84BD08958091B0006E
:1006E0008F7703C08091B0008F7D8093B000089514
:1006F000CF93DF9390E0FC01E458FF4F2491FC017D
:10070000E057FF4F8491882349F190E0880F991FAB
:10071000FC01E255FF4FA591B4918C559F4FFC0110
:10072000C591D4919FB7611108C0F8948C91209520
:1007300082238C93888182230AC0623051F4F8941A
:100740008C91322F309583238C938881822B8883E0
:1007500004C0F8948C91822B8C939FBFDF91CF9132
:1007600008950F931F93CF93DF931F92CDB7DEB7FA
:10077000282F30E0F901E859FF4F8491F901E4583E
:10078000FF4F1491F901E057FF4F04910023C9F086
:10079000882321F069830E944F036981E02FF0E0F4
:1007A000EE0FFF1FEC55FF4FA591B4919FB7F89442
:1007B0008C91611103C01095812301C0812B8C9312
:1007C0009FBF0F90DF91CF911F910F910895CF920E
:1007D000DF92EF92FF920F931F93CF93DF937C01F1
:1007E0006A01EB0100E010E00C151D0571F0699144
:1007F000D701ED91FC910190F081E02DC7010995A1
:10080000892B19F00F5F1F4FEFCFC801DF91CF91F8
:100810001F910F91FF90EF90DF90CF900895611599
:10082000710581F0DB010D900020E9F7AD01415029
:100830005109461B570BDC01ED91FC910280F381BD
:10084000E02D099480E090E008950C940F04089541
:100850000E9414030E9427040E948700C0E0D0E099
:100860000E94B2002097E1F30E940000F9CF0895A2
:10087000EE0FFF1F0590F491E02D0994F894FFCF3F
:1008800050494354202050554E45004C4344204984
:100890004E5445526661636500000000005C02E74B
:0208A000030053
:107E0000112484B714BE81FFF0D085E080938100F7
:107E100082E08093C00088E18093C10086E0809377
:107E2000C20080E18093C4008EE0C9D0259A86E02C
:107E300020E33CEF91E0309385002093840096BBD3
:107E4000B09BFECF1D9AA8958150A9F7CC24DD24C4
:107E500088248394B5E0AB2EA1E19A2EF3E0BF2EE7
:107E6000A2D0813461F49FD0082FAFD0023811F036
:107E7000013811F484E001C083E08DD089C08234E0
:107E800011F484E103C0853419F485E0A6D080C0E4
:107E9000853579F488D0E82EFF2485D0082F10E0AE
:107EA000102F00270E291F29000F111F8ED06801E7
:107EB0006FC0863521F484E090D080E0DECF843638
:107EC00009F040C070D06FD0082F6DD080E0C81688
:107ED00080E7D80618F4F601B7BEE895C0E0D1E017
:107EE00062D089930C17E1F7F0E0CF16F0E7DF06D8
:107EF00018F0F601B7BEE89568D007B600FCFDCFD4
:107F0000A601A0E0B1E02C9130E011968C91119780
:107F100090E0982F8827822B932B1296FA010C0160
:107F200087BEE89511244E5F5F4FF1E0A038BF0790
:107F300051F7F601A7BEE89507B600FCFDCF97BE46
:107F4000E89526C08437B1F42ED02DD0F82E2BD052
:107F50003CD0F601EF2C8F010F5F1F4F84911BD097
:107F6000EA94F801C1F70894C11CD11CFA94CF0C13
:107F7000D11C0EC0853739F428D08EE10CD085E9AC
:107F80000AD08FE07ACF813511F488E018D01DD067
:107F900080E101D065CF982F8091C00085FFFCCF94
:107FA0009093C60008958091C00087FFFCCF809118
:107FB000C00084FD01C0A8958091C6000895E0E648
:107FC000F0E098E1908380830895EDDF803219F02E
:107FD00088E0F5DFFFCF84E1DECF1F93182FE3DFCA
:107FE0001150E9F7F2DF1F91089580E0E8DFEE27F6
:047FF000FF270994CA
:027FFE00040479
:0400000300007E007B
:00000001FF
