:100000000C945D000C9485000C9485000C94850084
:100010000C9485000C9485000C9485000C9485004C
:100020000C9485000C9485000C9485000C9485003C
:100030000C9485000C9485000C9485000C9485002C
:100040000C947D030C9485000C9485000C94850021
:100050000C9485000C9485000C9485000C9485000C
:100060000C9485000C94850000000008000201003B
:100070000003040700000000000000000102040863
:100080001020408001020408102001020408102002
:10009000040404040404040402020202020203032E
:1000A0000303030300000000250028002B000000CC
:1000B0000000240027002A00F00111241FBECFEF0A
:1000C000D8E0DEBFCDBF11E0A0E0B1E0E6EBFAE0A2
:1000D00002C005900D92A036B107D9F721E0A0E645
:1000E000B1E001C01D92A138B207E1F710E0CAEB00
:1000F000D0E004C02297FE010E945505C83BD107FD
:10010000C9F70E9443050C9459050C94000020E0A7
:1001100042E060E180E691E00E94B90260E071E0B7
:1001200080E691E00E94400560ED77E080E090E09D
:100130000E94EA0380E691E00C9498026AE071E084
:1001400080E691E00E94400560ED77E080E090E07D
:100150000E94EA036DE071E080E691E00E944005B4
:1001600060ED77E080E090E00E94EA0360E171E0FA
:1001700080E691E00E94400560ED77E080E090E04D
:100180000E94EA0363E171E080E691E00E9440058D
:1001900060ED77E080E090E00E94EA0366E171E0C4
:1001A00080E691E00E94400560ED77E080E090E01D
:1001B0000E94EA0369E171E080E691E00E94400557
:1001C00060ED77E080E090E00E94EA036CE171E08E
:1001D00080E691E00E94400560ED77E080E090E0ED
:1001E0000E94EA036FE171E080E691E00E94400521
:1001F00060ED77E080E090E00E94EA0341E060E09B
:1002000080E691E00E949F0262E271E080E691E068
:100210000E94400560ED77E080E090E00E94EA03F4
:1002200065E271E080E691E00E94400560ED77E0D4
:1002300080E090E00E94EA0368E271E080E691E0ED
:100240000E94400560ED77E080E090E00E94EA03C4
:100250006BE271E080E691E00E94400560ED77E09E
:1002600080E090E00E94EA036EE271E080E691E0B7
:100270000E94400560ED77E080E090E00E94EA0394
:1002800061E371E080E691E00E94400560ED77E077
:1002900080E090E00E94EA0364E371E080E691E090
:1002A0000E94400560ED77E080E090E00E94EA0364
:1002B00067E371E080E691E00E94400560ED77E041
:1002C00080E090E00E94EA0380E691E00E949802BC
:1002D00040E060E080E691E00E949F026AE371E006
:1002E00080E691E00E94400560ED77E080E090E0DC
:1002F0000E94EA036DE371E080E691E00E94400510
:1003000060ED77E080E090E00E94EA0360E471E055
:1003100080E691E00E94400560ED77E080E090E0AB
:100320000E94EA0363E471E080E691E00E944005E8
:1003300060ED77E080E090E00E94EA0366E471E01F
:1003400080E691E00E94400560ED77E080E090E07B
:100350000E94EA0369E471E080E691E00E944005B2
:1003600060ED77E080E090E00E94EA036CE471E0E9
:1003700080E691E00E94400560ED77E080E090E04B
:100380000E94EA036FE471E080E691E00E9440057C
:1003900060ED77E080E090E00E94EA0341E060E0F9
:1003A00080E691E00E949F0262E571E080E691E0C4
:1003B0000E94400560ED77E080E090E00E94EA0353
:1003C00065E571E080E691E00E94400560ED77E030
:1003D00080E090E00E94EA0380E691E00C949802AD
:1003E000CF92EF920F9382E0C82E93E0E92E04E0C3
:1003F00025E04BE06CE080E691E00E9457030F910E
:10040000EF90CF900895CF93DF93EC0160E08E8161
:100410000E94CC0481E090E00E94240461E08E817F
:100420000E94CC0481E090E00E94240460E08E8170
:100430000E94CC0484E690E0DF91CF910C942404D8
:10044000EF92FF920F931F93CF93DF938C01C0E045
:10045000D0E0E62EF12CB7010C2E02C07595679501
:100460000A94E2F76170F801EC0FFD1F87810E948A
:10047000CC042196C430D10571F7C801DF91CF912A
:100480001F910F91FF90EF900C940302EF92FF9257
:100490000F931F93CF93DF938C01C0E0D0E0E62E43
:1004A000F12CB7010C2E02C0759567950A94E2F7FE
:1004B0006170F801EC0FFD1F87810E94CC0421962A
:1004C000C830D10571F7C801DF91CF911F910F910D
:1004D000FF90EF900C9403021F93CF93DF93EC01F6
:1004E000162F642F8C810E94CC048D818F3F19F0D0
:1004F00060E00E94CC048F85612F84FF06C0CE018E
:10050000DF91CF911F910C94460270E084E07595C5
:1005100067958A95E1F7CE010E942002612FCE01F6
:10052000DF91CF911F910C94200240E00C946C025B
:1005300061E00E94950280ED97E00C942404443021
:1005400008F043E0FC012389421710F04FEF420FFF
:10055000FC01E40FF11D2489260F2068622F0C9402
:100560009502FC016089262F2460208B6C600C941E
:1005700095020F931F93CF93DF93EC01423018F055
:100580008F8588608F874B8B1C8A80E48D8B6E8B68
:1005900070E0605C7F4F6F8B222329F0413019F4AB
:1005A0008F8584608F8761E08C810E9493048D81A8
:1005B0008F3F19F061E00E94930461E08E810E94F8
:1005C000930400E010E08F8584FF03C088E090E092
:1005D00002C084E090E00817190754F4FE01E00F10
:1005E000F11F61E087810E9493040F5F1F4FEBCFE3
:1005F00080E593EC0E94240460E08C810E94CC048E
:1006000060E08E810E94CC048D818F3F19F060E004
:100610000E94CC046F8564FD1DC063E0CE010E9482
:10062000200284E991E10E94240463E0CE010E944B
:10063000200284E991E10E94240463E0CE010E943B
:10064000200286E990E00E94240462E0CE010E942C
:10065000200216C06062CE010E94950284E991E1F9
:100660000E9424046F856062CE010E94950286E993
:1006700090E00E9424046F856062CE010E94950282
:100680006F856062CE010E94950284E0888BCE0166
:100690000E94B102CE010E94980282E0898B66E03E
:1006A000CE01DF91CF911F910F910C949502CF92C3
:1006B000EF920F93FC01138212828CE591E09183FB
:1006C000808364838FEF8583468327830087E18659
:1006D000C2861386148615861686178620E041E0AA
:1006E00060E1CF010F91EF90CF900C94B90241E0FF
:1006F0000E946C0281E090E008951F920F920FB665
:100700000F9211242F933F938F939F93AF93BF9397
:100710008091790190917A01A0917B01B0917C0147
:100720003091780123E0230F2D3720F40196A11D8D
:10073000B11D05C026E8230F0296A11DB11D20930F
:1007400078018093790190937A01A0937B01B09313
:100750007C0180917D0190917E01A0917F01B091FB
:1007600080010196A11DB11D80937D0190937E01B2
:10077000A0937F01B0938001BF91AF919F918F9122
:100780003F912F910F900FBE0F901F9018953FB77C
:10079000F89480917D0190917E01A0917F01B091AC
:1007A000800126B5A89B05C02F3F19F00196A11D19
:1007B000B11D3FBF6627782F892F9A2F620F711DB9
:1007C000811D911D42E0660F771F881F991F4A9572
:1007D000D1F708958F929F92AF92BF92CF92DF92FE
:1007E000EF92FF926B017C010E94C7034B015C01F9
:1007F000C114D104E104F104F1F00E9452050E94F9
:10080000C703681979098A099B09683E7340810505
:10081000910570F321E0C21AD108E108F10888EED1
:10082000880E83E0981EA11CB11CC114D104E10400
:10083000F10429F7DDCFFF90EF90DF90CF90BF90CC
:10084000AF909F908F9008958230910538F0880F77
:10085000991F880F991F05970197F1F708957894CC
:1008600084B5826084BD84B5816084BD85B58260B5
:1008700085BD85B5816085BDEEE6F0E08081816053
:100880008083E1E8F0E01082808182608083808153
:1008900081608083E0E8F0E0808181608083E1EB2B
:1008A000F0E0808184608083E0EBF0E08081816013
:1008B0008083EAE7F0E080818460808380818260C9
:1008C00080838081816080838081806880831092B2
:1008D000C1000895833081F028F4813099F082308E
:1008E000A1F008958730A9F08830B9F08430D1F4B0
:1008F000809180008F7D03C0809180008F778093EE
:100900008000089584B58F7702C084B58F7D84BD43
:1009100008958091B0008F7703C08091B0008F7DE3
:100920008093B0000895CF93DF9390E0FC01E458EA
:10093000FF4F2491FC01E057FF4F8491882349F138
:1009400090E0880F991FFC01E255FF4FA591B491EB
:100950008C559F4FFC01C591D4919FB7611108C080
:10096000F8948C91209582238C93888182230AC0ED
:10097000623051F4F8948C91322F309583238C930C
:100980008881822B888304C0F8948C91822B8C936D
:100990009FBFDF91CF9108950F931F93CF93DF9364
:1009A0001F92CDB7DEB7282F30E0F901E859FF4F8D
:1009B0008491F901E458FF4F1491F901E057FF4F7A
:1009C00004910023C9F0882321F069830E946A04FE
:1009D0006981E02FF0E0EE0FFF1FEC55FF4FA5916E
:1009E000B4919FB7F8948C91611103C01095812345
:1009F00001C0812B8C939FBF0F90DF91CF911F91EE
:100A00000F910895CF92DF92EF92FF920F931F9371
:100A1000CF93DF937C016A01EB0100E010E00C153D
:100A20001D0571F06991D701ED91FC910190F08164
:100A3000E02DC7010995892B19F00F5F1F4FEFCFEC
:100A4000C801DF91CF911F910F91FF90EF90DF9040
:100A5000CF9008956115710581F0DB010D900020A4
:100A6000E9F7AD0141505109461B570BDC01ED91EF
:100A7000FC910280F381E02D099480E090E00895DC
:100A80000C942A0508950E942F040E9442050E949A
:100A90008700C0E0D0E00E949E002097E1F30E9412
:100AA0000000F9CF0895EE0FFF1F0590F491E02D9F
:060AB0000994F894FFCF49
:100AB600416C7068616265747300412000422000D9
:100AC60043200044200045200046200047200048DF
:100AD60020004920004A20004B20004C20004D20D9
:100AE600004E20004F2000502000512000522000D0
:100AF600532000542000552000562000572000584F
:100B060020005920007A200000000000770302052B
:107E0000112484B714BE81FFF0D085E080938100F7
:107E100082E08093C00088E18093C10086E0809377
:107E2000C20080E18093C4008EE0C9D0259A86E02C
:107E300020E33CEF91E0309385002093840096BBD3
:107E4000B09BFECF1D9AA8958150A9F7CC24DD24C4
:107E500088248394B5E0AB2EA1E19A2EF3E0BF2EE7
:107E6000A2D0813461F49FD0082FAFD0023811F036
:107E7000013811F484E001C083E08DD089C08234E0
:107E800011F484E103C0853419F485E0A6D080C0E4
:107E9000853579F488D0E82EFF2485D0082F10E0AE
:107EA000102F00270E291F29000F111F8ED06801E7
:107EB0006FC0863521F484E090D080E0DECF843638
:107EC00009F040C070D06FD0082F6DD080E0C81688
:107ED00080E7D80618F4F601B7BEE895C0E0D1E017
:107EE00062D089930C17E1F7F0E0CF16F0E7DF06D8
:107EF00018F0F601B7BEE89568D007B600FCFDCFD4
:107F0000A601A0E0B1E02C9130E011968C91119780
:107F100090E0982F8827822B932B1296FA010C0160
:107F200087BEE89511244E5F5F4FF1E0A038BF0790
:107F300051F7F601A7BEE89507B600FCFDCF97BE46
:107F4000E89526C08437B1F42ED02DD0F82E2BD052
:107F50003CD0F601EF2C8F010F5F1F4F84911BD097
:107F6000EA94F801C1F70894C11CD11CFA94CF0C13
:107F7000D11C0EC0853739F428D08EE10CD085E9AC
:107F80000AD08FE07ACF813511F488E018D01DD067
:107F900080E101D065CF982F8091C00085FFFCCF94
:107FA0009093C60008958091C00087FFFCCF809118
:107FB000C00084FD01C0A8958091C6000895E0E648
:107FC000F0E098E1908380830895EDDF803219F02E
:107FD00088E0F5DFFFCF84E1DECF1F93182FE3DFCA
:107FE0001150E9F7F2DF1F91089580E0E8DFEE27F6
:047FF000FF270994CA
:027FFE00040479
:0400000300007E007B
:00000001FF
