:100000000C945D000C9485000C9485000C94850084
:100010000C9485000C9485000C9485000C9485004C
:100020000C9485000C9485000C9485000C9485003C
:100030000C9485000C9485000C9485000C9485002C
:100040000C94E4020C9485000C9485000C948500BB
:100050000C9485000C9485000C9485000C9485000C
:100060000C9485000C94850000000008000201003B
:100070000003040700000000000000000102040863
:100080001020408001020408102001020408102002
:10009000040404040404040402020202020203032E
:1000A0000303030300000000250028002B000000CC
:1000B0000000240027002A00870011241FBECFEF74
:1000C000D8E0DEBFCDBF11E0A0E0B1E0E2E2FBE0AE
:1000D00002C005900D92A434B107D9F721E0A4E441
:1000E000B1E001C01D92A536B207E1F710E0CAEBFE
:1000F000D0E004C02297FE010E947C05C83BD107D6
:10010000C9F70E940E050C948F050C940000CF9245
:10011000EF920F9382E0C82E93E0E92E04E025E0F1
:100120004BE06CE084E491E00E9484020F91EF9038
:10013000CF90089520E042E060E184E491E00E94E5
:10014000E60144E251E060E084E491E00E94A40210
:100150004CE151E061E084E491E00E94A40244E1BA
:1001600051E062E084E491E00E94A4024CE051E09E
:1001700063E084E491E00E94A40244E051E064E082
:1001800084E491E00E94A4026DE271E084E491E0D5
:100190000E94C40460E084E491E00E94DE0260E317
:1001A00071E084E491E00E94C40461E084E491E0A1
:1001B0000C94DE02AF92BF92CF92DF92EF92FF9249
:1001C0000F931F938EE00E94D103BC01882777FD17
:1001D0008095982F1F921F9223E02F9328EE2F9344
:1001E00028ECA22EB12CC12CD12CEE24EA9413E0E1
:1001F000F12E00E010E020E030E0A9010E94C604EA
:100200006B017C0141E064E084E491E00E94CC0158
:1002100063E084E491E00E94DE02EE24D7FCE094E7
:10022000FE2CC701B6010E94510341E064E084E462
:1002300091E00E94CC0164E084E491E00E94DE023F
:100240000F900F900F900F90C701B6011F910F9163
:10025000FF90EF90DF90CF90BF90AF900C94510340
:10026000CF93DF93EC0160E08E810E94500481E027
:1002700090E00E948B0361E08E810E94500481E037
:1002800090E00E948B0360E08E810E94500484E61F
:1002900090E0DF91CF910C948B03EF92FF920F933C
:1002A0001F93CF93DF938C01C0E0D0E0E62EF12CBA
:1002B000B7010C2E02C0759567950A94E2F761703C
:1002C000F801EC0FFD1F87810E9450042196C43075
:1002D000D10571F7C801DF91CF911F910F91FF9068
:1002E000EF900C943001EF92FF920F931F93CF93F6
:1002F000DF938C01C0E0D0E0E62EF12CB7010C2E8C
:1003000002C0759567950A94E2F76170F801EC0FE9
:10031000FD1F87810E9450042196C830D10571F7D6
:10032000C801DF91CF911F910F91FF90EF900C9436
:1003300030011F93CF93DF93EC01162F642F8C8134
:100340000E9450048D818F3F19F060E00E9450049C
:100350008F85612F84FF06C0CE01DF91CF911F9161
:100360000C94730170E084E0759567958A95E1F7C8
:10037000CE010E944D01612FCE01DF91CF911F91DF
:100380000C944D0140E00C94990161E00E94C2017F
:1003900080ED97E00C948B03443008F043E0FC01BF
:1003A0002389421710F04FEF420FFC01E40FF11DBB
:1003B0002489260F2068622F0C94C201FC016089F9
:1003C000262F2460208B6C600C94C2010F931F9326
:1003D000CF93DF93EC01423018F08F8588608F87D0
:1003E0004B8B1C8A80E48D8B6E8B70E0605C7F4F42
:1003F0006F8B222329F0413019F48F8584608F8719
:1004000061E08C810E9417048D818F3F19F061E0BB
:100410000E94170461E08E810E94170400E010E042
:100420008F8584FF03C088E090E002C084E090E004
:100430000817190754F4FE01E00FF11F61E08781EE
:100440000E9417040F5F1F4FEBCF80E593EC0E94D3
:100450008B0360E08C810E94500460E08E810E94DA
:1004600050048D818F3F19F060E00E9450046F8529
:1004700064FD1DC063E0CE010E944D0184E991E15D
:100480000E948B0363E0CE010E944D0184E991E15B
:100490000E948B0363E0CE010E944D0186E990E04B
:1004A0000E948B0362E0CE010E944D0116C0606283
:1004B000CE010E94C20184E991E10E948B036F8505
:1004C0006062CE010E94C20186E990E00E948B0327
:1004D0006F856062CE010E94C2016F856062CE01AD
:1004E0000E94C20184E0888BCE010E94DE01CE0111
:1004F0000E94C50182E0898B66E0CE01DF91CF9139
:100500001F910F910C94C201CF92EF920F93FC01B7
:10051000138212828FE391E09183808364838FEF53
:100520008583468327830087E186C28613861486E7
:1005300015861686178620E041E060E1CF010F9115
:10054000EF90CF900C94E601CF92DF92EF92FF9262
:100550000F931F93CF93DF9300D0CDB7DEB78C01FD
:10056000677088E0689FB00111246064C801498306
:100570005A830E94C2014981C42E5A81D52EE12C92
:10058000F12CD6016D916D01D801ED91FC91019096
:10059000F081E02DC8010995BFEFEB1AFB0AE8E0F6
:1005A000EE16F10471F70F900F90DF91CF911F912C
:1005B0000F91FF90EF90DF90CF90089541E00E945F
:1005C000990181E090E008951F920F920FB60F926B
:1005D00011242F933F938F939F93AF93BF93809159
:1005E0005D0190915E01A0915F01B0916001309139
:1005F0005C0123E0230F2D3720F40196A11DB11DCE
:1006000005C026E8230F0296A11DB11D20935C01B1
:1006100080935D0190935E01A0935F01B0936001B0
:100620008091610190916201A0916301B091640198
:100630000196A11DB11D8093610190936201A09369
:100640006301B0936401BF91AF919F918F913F91EE
:100650002F910F900FBE0F901F9018953FB7F894F1
:100660008091610190916201A0916301B091640158
:1006700026B5A89B05C02F3F19F00196A11DB11DFD
:100680003FBF6627782F892F9A2F620F711D811D1A
:10069000911D42E0660F771F881F991F4A95D1F779
:1006A00008958F929F92AF92BF92CF92DF92EF9276
:1006B000FF926B017C010E942E034B015C01C1146F
:1006C000D104E104F104F1F00E941D050E942E0303
:1006D000681979098A099B09683E7340810591056B
:1006E00070F321E0C21AD108E108F10888EE880E03
:1006F00083E0981EA11CB11CC114D104E104F104D3
:1007000029F7DDCFFF90EF90DF90CF90BF90AF90B3
:100710009F908F9008958230910538F0880F991F2F
:10072000880F991F05970197F1F70895789484B57C
:10073000826084BD84B5816084BD85B5826085BDDD
:1007400085B5816085BDEEE6F0E0808181608083C3
:10075000E1E8F0E0108280818260808380818160A6
:100760008083E0E8F0E0808181608083E1EBF0E06D
:10077000808184608083E0EBF0E080818160808311
:10078000EAE7F0E0808184608083808182608083FA
:100790008081816080838081806880831092C10025
:1007A00008958E3008F08E50877020912C0190E4CF
:1007B000299F90011124822B80937C0080917A00E4
:1007C000806480937A0080917A0086FDFCCF8091CE
:1007D00078002091790090E0922B0895833081F089
:1007E00028F4813099F08230A1F008958730A9F083
:1007F0008830B9F08430D1F4809180008F7D03C0BF
:10080000809180008F7780938000089584B58F77E2
:1008100002C084B58F7D84BD08958091B0008F772C
:1008200003C08091B0008F7D8093B0000895CF9376
:10083000DF9390E0FC01E458FF4F2491FC01E05766
:10084000FF4F8491882349F190E0880F991FFC01A4
:10085000E255FF4FA591B4918C559F4FFC01C59176
:10086000D4919FB7611108C0F8948C912095822390
:100870008C93888182230AC0623051F4F8948C9161
:10088000322F309583238C938881822B888304C0F8
:10089000F8948C91822B8C939FBFDF91CF91089518
:1008A0000F931F93CF93DF931F92CDB7DEB7282FFF
:1008B00030E0F901E859FF4F8491F901E458FF4F06
:1008C0001491F901E057FF4F04910023C9F08823E8
:1008D00021F069830E94EE036981E02FF0E0EE0FC2
:1008E000FF1FEC55FF4FA591B4919FB7F8948C91E1
:1008F000611103C01095812301C0812B8C939FBF90
:100900000F90DF91CF911F910F910895CF92DF92B9
:10091000EF92FF920F931F93CF93DF937C016A01B5
:10092000EB0100E010E00C151D0571F06991D70195
:10093000ED91FC910190F081E02DC7010995892B83
:1009400019F00F5F1F4FEFCFC801DF91CF911F91BB
:100950000F91FF90EF90DF90CF9008956115710592
:1009600081F0DB010D900020E9F7AD014150510904
:10097000461B570BDC01ED91FC910280F381E02DC9
:10098000099480E090E008950C94AE044F925F9239
:100990006F927F92AF92BF92CF92DF92EF92FF92CF
:1009A0000F931F93CF93DF93CDB7DEB729013A01A1
:1009B000621B730B840B950B29893A894B895C89DF
:1009C0002A193B094C095D09298B3A8B4B8B5C8BAF
:1009D0009B01AC0169897A898B899C890E941E05DB
:1009E000E418F50806091709A80197010E945005A7
:1009F0002A0D3B1D4C1D5D1DCA01B901DF91CF9130
:100A00001F910F91FF90EF90DF90CF90BF90AF902C
:100A10007F906F905F904F90089508950E94960385
:100A20000E940D050E949A00C0E0D0E00E94DA000A
:100A30002097E1F30E940000F9CF0895DB018F9326
:100A40009F930E946F05BF91AF91A29F800D911D52
:100A5000A39F900DB29F900D11240895A1E21A2E2C
:100A6000AA1BBB1BFD010DC0AA1FBB1FEE1FFF1F52
:100A7000A217B307E407F50720F0A21BB30BE40BA2
:100A8000F50B661F771F881F991F1A9469F76095E9
:100A90007095809590959B01AC01BD01CF010895A3
:100AA000052E97FB1EF400940E94670557FD07D0A2
:100AB0000E942E0507FC03D04EF40C946705509558
:100AC0004095309521953F4F4F4F5F4F089590953A
:100AD0008095709561957F4F8F4F9F4F08950E942D
:100AE0008005A59F900DB49F900DA49F800D911D32
:100AF00011240895EE0FFF1F0590F491E02D099445
:100B0000A29FB001B39FC001A39F700D811D11244E
:100B1000911DB29F700D811D1124911D0895F894AF
:020B2000FFCF05
:100B220001000000040A04150E04040A040A040465
:100B32000E15040A00000A0000000E1100000A004F
:100B420000110E00000A1F1F1F0E040001492000A1
:100B52002041726475696E6F21200000000000DE82
:040B62000286040003
:107E0000112484B714BE81FFF0D085E080938100F7
:107E100082E08093C00088E18093C10086E0809377
:107E2000C20080E18093C4008EE0C9D0259A86E02C
:107E300020E33CEF91E0309385002093840096BBD3
:107E4000B09BFECF1D9AA8958150A9F7CC24DD24C4
:107E500088248394B5E0AB2EA1E19A2EF3E0BF2EE7
:107E6000A2D0813461F49FD0082FAFD0023811F036
:107E7000013811F484E001C083E08DD089C08234E0
:107E800011F484E103C0853419F485E0A6D080C0E4
:107E9000853579F488D0E82EFF2485D0082F10E0AE
:107EA000102F00270E291F29000F111F8ED06801E7
:107EB0006FC0863521F484E090D080E0DECF843638
:107EC00009F040C070D06FD0082F6DD080E0C81688
:107ED00080E7D80618F4F601B7BEE895C0E0D1E017
:107EE00062D089930C17E1F7F0E0CF16F0E7DF06D8
:107EF00018F0F601B7BEE89568D007B600FCFDCFD4
:107F0000A601A0E0B1E02C9130E011968C91119780
:107F100090E0982F8827822B932B1296FA010C0160
:107F200087BEE89511244E5F5F4FF1E0A038BF0790
:107F300051F7F601A7BEE89507B600FCFDCF97BE46
:107F4000E89526C08437B1F42ED02DD0F82E2BD052
:107F50003CD0F601EF2C8F010F5F1F4F84911BD097
:107F6000EA94F801C1F70894C11CD11CFA94CF0C13
:107F7000D11C0EC0853739F428D08EE10CD085E9AC
:107F80000AD08FE07ACF813511F488E018D01DD067
:107F900080E101D065CF982F8091C00085FFFCCF94
:107FA0009093C60008958091C00087FFFCCF809118
:107FB000C00084FD01C0A8958091C6000895E0E648
:107FC000F0E098E1908380830895EDDF803219F02E
:107FD00088E0F5DFFFCF84E1DECF1F93182FE3DFCA
:107FE0001150E9F7F2DF1F91089580E0E8DFEE27F6
:047FF000FF270994CA
:027FFE00040479
:0400000300007E007B
:00000001FF
